:02000002B0004C
:1040000000400B00C0C60B00000006000C000502BB
:084010000401E50C00000000B2
:044018005CAD0B0090
:1040200009480A49884208B505D0094A824202D0A7
:10403000121A04F072FE0748074A0021121A04F00F
:104040007AFE014808BD00BFE4E30320B8C40B00BA
:10405000C4E50320C4E50320EDE7032070B5074E57
:10406000074C03F0ADFEA41BA4080025AC4200D110
:1040700070BD56F8043B98470135F7E76CC40B0058
:1040800090C40B0000F0F4BC08B500F06FFEBDE872
:10409000084003F04DBE02F045BD02F043BD02F002
:1040A00049BD000008B5034A03490C2002F08EFC0C
:1040B000FEE700BF4D660B0070AD0B000078B0FA54
:1040C00080F04009704701230370704770B50C1EE3
:1040D000064615460BDA0A2A09D12D2102F0BAFF4D
:1040E0006142EAB23046BDE8704002F0CCBF2146E2
:1040F000F7E7000008B502F0B1FA034B1860BDE81D
:10410000084002F09FBC00BF28E7032003682BB1E2
:10411000406883422CBF002001207047184670473A
:1041200010B50446FFF7F2FF48B1206804F0EAFD3D
:1041300051EC100B04F072FD00EE100A10BD9FED63
:10414000010AFBE70000000010B50446FFF7DEFFA0
:1041500020B12068BDE8104004F0D7BD10BD38B5CF
:104160000446FFF7D3FF30B12568284604F024FE4B
:10417000013005442560204638BDF7B5D1E9003649
:104180001E44CDE90036044615466F46009B9E420C
:104190000CD935B997E8030084E80300204603B042
:1041A000F0BD3846FFF7DBFF013DEFE70023C4E930
:1041B0000033F3E7F8B5044647680D4621B90368B4
:1041C0007A1C4260D955F8BD084604F0F5FDA36895
:1041D000461CF2199A42F6D82068324629463844DD
:1041E00004F09BFD606830446060ECE738B504463D
:1041F0000B46D0E901012568044A091A284402F057
:10420000A1FC636801300344636038BD85AD0B00D9
:1042100038B504460B46D0E901012568044A091A5D
:10422000284402F08FFC636801300344636038BDAA
:1042300088AD0B0013B5012268460C46FFF79DFFC1
:104240006846FFF76DFF0D4B21460022684683ED5F
:10425000000AFFF792FF6846FFF762FF084B022251
:104260002146684683ED000AFFF787FF6846FFF79F
:1042700057FF044B83ED000A02B010BDA4E60320F3
:10428000A0E6032020E6032010B5052003F032FE4F
:10429000012816D10B4C0C4A21780C4B41B100215E
:1042A000217010701970BDE81040C82002F086BC63
:1042B000147814B111701870F5E71B780BB1044B2A
:1042C000187010BDE4E30320A8E603209CE6032059
:1042D00028E6032008B5054801F01AFC034800232E
:1042E0000361BDE80840012101F059BA2CE6032022
:1042F000D0B50F2003F011FEC11704F061F928A317
:10430000D3E9002304F092F927A3D3E9002304F0B2
:10431000B7FA1D4B1D4C002203F0D0FF1C4B0022AE
:1043200004F084F906460F46FFF7D4FF47EC106B04
:104330000221204602F08EFF1649204602F099FE27
:104340000FA3D3E900233046394604F06FF9124B2E
:10435000002203F0B5FF04F019FC0A2201462046B2
:10436000FFF7B4FE0D49204602F070FE204601F032
:104370003DFEBDE8D040C82002F020BCAFF3008075
:10438000CDCCCCCCCCCCFC3F0000E03F2CE60320D5
:10439000000059408CAD0B00000040408EAD0B007A
:1043A0006666666666660A400000000000FEAF4072
:1043B00010B50A4CFFF78EFF0949204602F046FE71
:1043C000084B0A221968204602F05DFE204602F0E2
:1043D00044FE2046BDE8104001F008BE2CE6032054
:1043E00090AD0B0024E6032008B500234377006856
:1043F00003F004FBBDE8084002F04BB82DE9F043A0
:104400008F188FB0B942CDE9051706468946904608
:1044100080F0C28005A80D88FFF7A1FE0368BB42AB
:1044200080F0BA8005980378412B49D1013004F01F
:104430006CFC052837DDFF2447F276239D4200F00F
:10444000D38041D847F261239D4200F0A88047F213
:1044500064239D426BD046F670539D4241D1784D06
:10446000784EDFF8F4810598B84280F095800378A3
:10447000412B4BD1013004F048FC052839DDFF24E5
:1044800005A8FFF76CFEDDF814902946484604F0B5
:1044900089FC014600283DD1204603F001FD05A816
:1044A000FFF75DFEDFE70598013004F02EFC0028E1
:1044B000C1DB0598013004F028FC0E30C4B2BBE724
:1044C00005A8FFF741FEF9E747F264739D424FD01C
:1044D00047F276739D4200F0978047F261739D42E8
:1044E0006FD00023CDE9013302220092728B19466E
:1044F0003AE00598013004F008FC0028BFDB05987D
:10450000013004F002FC0E30C4B2B9E705A8FFF791
:104510001BFEF9E73146484604F044FC28B1414609
:10452000484604F03FFC0028B9D10121B4E70AABAA
:104530004549079307A810230025CDE90853FFF745
:1045400039FE07A82146FFF751FE204603F0D2FCB2
:10455000014607A8FFF75CFE089BCDE90155013B2A
:104560000093079B2A461421304600F00BFB13E012
:1045700005A8FFF7F4FD03689F420DD9A4B20121FD
:10458000204603F08DFC05A8FFF7DEFD011E18BFD5
:104590000121204603F095FC0FB0BDE8F0830AAB83
:1045A000079307A8102329490025CDE90853FFF7F1
:1045B00001FE07A82146FFF719FE204603F0ADFCD7
:1045C000C6E705A8FFF7CBFD03689F42E4D9A4B274
:1045D0000121204603F064FC05A8FFF7B5FD014664
:1045E000204603F0B1FCD7E720468DF8284001F0C3
:1045F00051FF03460AA823B1154A934201D09847B8
:10460000CAE701F044FFC7E705A8FFF7A8FD059B2F
:104610008DF81C40A3EB0901A8EB01012046CDE970
:104620000A310C9101F040FF03460AA907A823B103
:10463000084A934201D09847AEE701F029FFABE763
:10464000A6AD0B00A9AD0B00B1AD0B00B4AD0B00D6
:104650008F640B0091640B00ADAD0B002DE9F041B0
:104660008CB004AF044605220068391D02F00DFF2E
:1046700098B3052804D000202037BD46BDE8F0815E
:10468000B7F805305BBA9AB2A7F80530B7F807302B
:104690005BBA1FFA83F8A7F80730002AEBD03B7902
:1046A00023BB01F0F2FE0246E060607FB7F80730FE
:1046B000C0B9B7F80510012914D1092B0FD0C82BA8
:1046C00001D0042BD8D1012562612046657700F026
:1046D00007FBFFF70FFD01F0DCFE0120CCE7032311
:1046E0006377C9E7581F18BF0120C5E7B8F5806F89
:1046F00003D92046FFF778FEEFE708F108036E467E
:10470000DB08A6EBC3039D4604AD2068424629465C
:1047100002F0BBFE80454FF000007FD1B7F80730B4
:10472000E85401F0B2FE3B79E060142B00F0A58064
:1047300048D80F2B00F0A18007D8022B48D0062BB9
:1047400051D02046FFF750FE58E0112BF9D100233D
:104750003B70B7F807302B449D42C7E903534DD255
:1047600007F10C00D5F80080FFF7F9FCFB68B7F8FB
:1047700007105D1B4D1BC7E905357B68FD61C3F361
:104780000F236383634B984500F0BE8000F28B805B
:10479000A3F57F236FF400721344984500F09C80CA
:1047A00078D8A3F50033063B984500F09B8003F5CD
:1047B0000033033398456AD107F11401384601F0FC
:1047C00067FE64E0292B1BD0372B17D01D2BB8D1E7
:1047D000637F43B901236377204600F081FAFFF736
:1047E00089FC01F056FE0023C821B7F8052000918E
:1047F000CDE901331946204600F0C4F901200DE04F
:10480000A3681BB9402002F08DF9A060B7F80780BB
:10481000A8444545C7E9055802D30020B5462BE713
:1048200040222946A06804F0E3FAA368002283F836
:104830003F2007F11400FFF792FC036898451AD94E
:1048400007F11400FFF762FC10B1786904F061FA17
:1048500085B2206803F0D2F82368A2685A631D87E6
:104860000023637701F011FEA0F59C500838C4E9DD
:1048700003006061C2E75025EBE77B68B7F80720CB
:10488000C3F30F23638329462046FFF7B7FD0023B8
:104890006383B3E7204B9845F9D107F114013846FB
:1048A00001F0F6FDF3E71D4B984521D003F19F631E
:1048B00003F5003303F5807398451FD003F16E4371
:1048C00003F5302303F586739845E0D107F1140111
:1048D000384601F0DDFDDAE707F11401384601F052
:1048E000D7FDD4E707F11401384601F0D1FDCEE73A
:1048F00007F11401384601F0CBFDC8E707F11401B8
:10490000384601F0C5FDC2E707F11401384601F051
:10491000BFFDBCE7766673006462670061636F6E1B
:104920002DE9F04104468CB00D46FFF7E3FB637FB1
:10493000022B1ED0237F628B0133DBB22377AAB90F
:10494000022B13D8206802F021FFA8B125B92068F6
:1049500002F0FAFF00280FDD2046FFF77FFE002857
:10496000F5D1206803F04AF801F093FD237F013B65
:1049700023770CB0BDE8F08101F087FD0546206883
:1049800002F004FF677F012F064624D120B965613C
:104990002046FFF729FDE9E7E3684FF21862EB1ABA
:1049A0009342F5D84AF6C872934203D82369EB1AAA
:1049B0009342DBD9636941F27072EB1A9342D5D905
:1049C0000023CDE9013300931A460621204600F06A
:1049D000D9F86561CAE7002FC8D16369EB1A40B105
:1049E00041F270729342C1D9206803F007F86777EB
:1049F000BCE741F288329342B8D9206802F0FEFF4A
:104A0000D4F800C0DCF834E0BCF83880BEF1000F08
:104A10001BD0334642467146604602F039FE0128FB
:104A2000D7D16368059301251846258304F0C4F99E
:104A30000022CDE90122059B00902A461D21204637
:104A400000F0A0F82369636190E7084B06930CF12E
:104A500020070FCF07AE0FC63B6833704246734640
:104A600006A9604602F0F4FED9E700BF34BE0B0091
:104A70002DE9F0413F48404D94B001F067FDFFF74C
:104A800029FC3C484FF00113436101F0AFFA03F0F9
:104A900099FA02F01FF903F095FA0146374801F040
:104AA000C7FC364801F07BFC344801F04AFC012188
:104AB000082003F0F5F90121072003F0F1F90121A5
:104AC000062003F0EDF90021052003F0E9F90021AB
:104AD0000E2003F0E5F9A223AC22A721009302A83F
:104AE000EA2302F0B5F903AC40F6B83001F0CBFC94
:104AF0000FCC09AF0FC723683B70214B6B6001F0EF
:104B0000C4FCA0F59C5008380DF1240CC5E9030045
:104B10006861BCE80F000FAE0FC62C683B683370AD
:104B20000FAF41F6907323870FCF4FF00008C4F802
:104B3000348020340FC43368237044F24F662868F1
:104B400002F05CFF85F81D8001F09FFC04466B7F3E
:104B5000012B0CD001F099FC001BB04204D80021BD
:104B60002846FFF7DDFEF2E76B7F012BE7D114B09B
:104B7000BDE8F0812CE60320C4E50320B4E6032061
:104B8000B7AD0B002DE9F04F83B000AF04460068CD
:104B90003D6B884616469946EB4602F0F7FD002825
:104BA0007FD0B8F11D0F04D84C4B23FA08F3DB0774
:104BB00002D4637F012B74D146B9668B36B9238B3F
:104BC00001339BB2002B71D02383268BA8F10C03F9
:104BD000082B16D8D4E90323934238BF134603F1B8
:104BE000420A01F052FCAAEB0000002860DB002121
:104BF0002046FFF795FE01F048FCAAEB00000028D4
:104C0000F5DAB9F1000F5AD06B1D7A6B002ABA6B36
:104C100008BF002203EB020A0AF1070323F007038F
:104C2000ADEB030DBB6BC7F804D0EA18C2F3072342
:104C300076BA43EA02238DF80080ADF80160ADF842
:104C40000330B9F1000F3CD0002D3AD02A46494636
:104C50000DF1050004F061F8681D7B6B3BB1BB6B87
:104C60002BB11A467B68796B184404F056F800257E
:104C700055452AD2AAEB05027B682068B2F5806F01
:104C800028BF4FF48062591902F033FC0646002019
:104C900001F0F9FBBEB9206802F0B0FE667701F0C2
:104CA000F8FB0C37DD46BD46BDE8F08F01238BE7EE
:104CB000217F0029A5D12046FFF732FEA1E7052379
:104CC000A3E70520C9E73544D2E703D02046FFF724
:104CD0008BFBE6E701F0D9FB2061E2E7450000200D
:104CE00000B595B004AB002201934F2300930292CC
:104CF000034B1121FFF746FF15B05DF804FB00BF21
:104D00003BAE0B0070B5ADF5856D002405920AAA87
:104D100005460E46079207A84FF480621149CDE977
:104D20000842FFF747FA314607A8FFF75FFADDE9C7
:104D30000801079E059B0C4A091A304401F002FF46
:104D4000431C089803440893013B0093CDE90144B8
:104D5000079B224614212846FFF714FF0DF5856DA9
:104D600070BD00BFD8AD0B00DBAD0B00F7B5002167
:104D70005748584F584DFFF7D3FD584801F00FFCE6
:104D8000574801F060FA0021024638605048FFF7AA
:104D9000B9FF524801F01CFC064648B101232B70B4
:104DA000FFF7A6FA0021062003F08BF8002170E03F
:104DB0004A4801F017FC044650B32E70494B1D7849
:104DC000002D56D1FFF760FA474B1C78002C39D0E4
:104DD0000E2003F0A2F84FF6FF732946009340F629
:104DE000FF722B4601F0DEFE404B04461860FFF7D1
:104DF00071FA3F49394802F03CF938480A22214605
:104E0000FFF764F9354803B0BDE8F04001F0EEB8B3
:104E1000324801F0F1FB88B1324B2C701C70324BE0
:104E20000122214606201A7003F04BF82146072084
:104E300003F047F82146082003F043F82B78002BB5
:104E4000BCD0ADE72B4B1B78002B3ED00E2003F0DF
:104E500064F84FF6FF732146009340F6FF72234635
:104E600001F0A0FE244B04461860FFF733FA2349F3
:104E7000C0E7FFF79DFA204A3B681268934212D2BE
:104E80001A4909688B420ED90021062003F019F84F
:104E90000121072003F015F80021082003B0BDE828
:104EA000F04003F00EB8934201D901217BE70F4A8D
:104EB0001268934209D20021062003F002F8002173
:104EC000072002F0FEFF0121E7E703B0F0BD00BFBD
:104ED000C4E5032024E60320E5E303202CE60320B9
:104EE000B4E6032028E60320E4E30320B0E6032031
:104EF000DEAD0B00A8E60320ACE60320F5AD0B0009
:104F000010B51A4C1A480121FFF70AFDFFF7E2F924
:104F10001849204602F0ADF81749204602F096F8ED
:104F2000164B072193ED000A204602F0A1F914491F
:104F3000204602F08BF8134B072193ED000A204620
:104F400002F096F91049204602F080F80F4B02213A
:104F500093ED000A204602F08BF9204601F046F856
:104F6000BDE810404FF4FA6001F028BE2CE60320A3
:104F7000C4E503200CAE0B001CAE0B00A0E6032022
:104F800022AE0B00A4E6032028AE0B0020E603208F
:104F900038B5104D284602F07BFD05F11C0001F0EC
:104FA00013FF0D4B0D480024C3E90054C3E902442C
:104FB000C3E904449C619C836C632C8701F009F96C
:104FC0000721074801F094FA21460120BDE8384046
:104FD00001F01CBDE4E50320C4E50320B4E6032092
:104FE0002CE603202DE9F04F85B01F46BDF938802F
:104FF000BDF83C30A8EB0209A7EB010AB9F1000F9C
:10500000B8BFC9F10009BAF1000FB8BFCAF1000A70
:10501000D14583460C46154604DD3A462C464746A4
:105020000D469046BC4205DD2A464546904622463E
:105030003C4617463E1BB2B20092A8EB050282EA3C
:10504000E271A1EBE271C6F3C03202FA86F6454581
:10505000B4BF01224FF0FF32019176100292BC42A0
:105060001CDCDBF800200393D145D2F81880C7BFC1
:10507000294622462A4621465846C047019A039BA4
:10508000B61AB1B236B2002E05DA029A1544009A69
:1050900056182DB236B2013424B2E0E705B0BDE8AF
:1050A000F08F704710B404682469A4465DF8044B7F
:1050B000604730B40468BDF808500295A46BA4465C
:1050C00030BC604730B40468BDF808500295E46B0A
:1050D000A44630BC604770B4BDF90C50BDF81060F8
:1050E0000468CDE90356246CA44670BC60472DE9E2
:1050F000F3411C460368BDF820805B6905461646EF
:10510000013C34440F4624B298472B68CDF8048004
:1051100000949C6A28463B4632463946A0472B6895
:10512000DB6A284602B0BDE8F04118472DE9F3419B
:105130001D460368BDF820805B69044617460E468D
:105140009847CDE9007822686B1E3344956A204663
:105150001BB23A463146A8472368DB6A204602B0B4
:10516000BDE8F04118472DE9F3471E460368BDF935
:1051700028905B69BDF82C800C4605461746984779
:105180002644B4422B680BDACDF80080D3F820A077
:1051900021464B463A4628460134D04724B2F0E730
:1051A000DB6A284602B0BDE8F047184713B502682D
:1051B0000191B0F90E100091146CB0F90C3000227E
:1051C0001146A04702B010BD2DE9F743994216469B
:1051D000BDF92870BDF82C90026880460D461C462B
:1051E00013D1BE42C8BF3346CDF82890C4BF3E4657
:1051F0001F467B1C946B9B1B1BB2324629464046C4
:10520000A44603B0BDE8F0436047BE420AD19942CC
:10521000C2BF0B4625461C46631CCDF82890D46BB4
:105220005B1BE9E753699847CDE90079D8F800306E
:1052300040469F6A324623462946B847D8F8003090
:10524000DB6A404603B0BDE8F04318472DE9F34759
:105250001D460368BDF82C805B69BDF928900446A3
:105260000F46164698472368CDF80080D3F824A04F
:1052700032462B4639462046D0472368CDF8008079
:1052800009F1FF323244D3F824A039462B46204698
:1052900012B2D0472368CDF80080D3F820A0324660
:1052A0004B4639462046D0476B1ED9192368CDF8A6
:1052B00000801D6A20464B46324609B2A847236843
:1052C000DB6A204602B0BDE8F0471847704701F09E
:1052D0000303B0F90A208376C907B0F9083059BF33
:1052E0008381C2818281C3817047000030B54281D1
:1052F000C281074A074D0181002481814FF0FF31AF
:10530000C0E905124460056004610477046230BDA1
:105310000101000194B30B002DE9F04F89B0CDE9F4
:1053200002120268BDF948800493BDF94C305269FD
:105330000593BDF850A00446904718F107024FF0BE
:10534000000648BF08F10E024FEAE20B019635460F
:10535000039B019ABDF904109A18059B8B4212B267
:1053600027DD049B33444FF0000906930FFA89F0C0
:1053700080451FFA89F117DD4F0705BF069BC01056
:105380006D001D5C18BFEDB22B060AD5029B20688C
:1053900007921944836909B21F4620465346B8470D
:1053A000079A09F10109E1E7019B013301935E448A
:1053B000CEE72368DB6A204609B0BDE8F04F184706
:1053C0002DE9F04F2DED028B91B01646026ABDF823
:1053D00074809DF878509DF87C4003911F46BDF87D
:1053E000703004938346002A40F0C580B0F90C3039
:1053F0008B4240F34C81B0F90E30B34240F3478109
:10540000062313FB0513002B40F3418106EBC40375
:10541000002B40F33C81037F1BB9AF2F84BF0137C2
:10542000FFB2DBF8003058465B69984705220992C5
:1054300000220592984A07EB8703D3180C93B3B266
:105440000693059A0C9B9B5C0793ABB20B93BDF83C
:105450000C300893039B02FB05F919FA83F90FFA44
:1054600089F308EE103A08230A93039B02EB030A20
:105470004FF000090FFA8AFA079ADBF80030D207DA
:1054800052D5012D1FFA89F23ED1012C3CD19B69E6
:1054900006991F46049B0A4412B251465846B84723
:1054A00009F101034FFA83F9079B5B0807930A9BF5
:1054B000013B13F0FF030A93DED1059F01377BB256
:1054C0000593099B013B13F0FF030993B9D1049B9A
:1054D00043450FD0012DDBF800303BD1012C39D1F1
:1054E0000899CDF8008005311C6A3246082309B2BC
:1054F0005846A047DBF80030DB6A584611B0BDECD7
:10550000028BBDE8F04F1847069914FB02F20A44DB
:10551000049901910094DB6918EE101A1F4612B22B
:105520002B465846B847BBE7049A4245B8D0012DF0
:105530001FFA89F207D1012C05D19B6906991F46F4
:105540000A444346A8E70699CDF8048014FB02F20A
:105550000A44DFE70B9ACDF8048002EB8201089A37
:10556000E4000A4411460094DC6932462B4609B235
:105570005846A047BEE7137A516812680B92FF1A8B
:10558000FFB201EBC70331F8372006929A780992EF
:10559000DA780C92012D93F9052093F906A00A926E
:1055A00001D8012C57D9BDF9283008930FFA8AF396
:1055B0000793DBF8003058465B699847B3B24FF069
:1055C00000080E931AFA86F3C14647460F930C9BC8
:1055D0009F428FD2079B0E9A3B4403FB0423002279
:1055E00005920F9A1BB202EB070A08EE103A0FFA67
:1055F0008AFA4346099A0599914241D25A1CD2B27D
:105600005B070D9207D1069B06990B9A01339BB25B
:1056100012F80190069319F0800F12D0012DDBF8DB
:105620000030BDF80C101AD1012C18D10A9A9B69D0
:105630001144059A11441E465246049B09B258462D
:10564000B047059E0136F3B24FEA490905935FFA68
:1056500089F90D9BCEE70023CDE90733A9E705982B
:10566000089A024402FB0511049ACDE90042DB6965
:1056700018EE102A1E4609B22B465846B047E0E7FE
:10568000099B013798445FFA88F8FFB29FE711B091
:10569000BDEC028BBDE8F08F8CAE0B00F0B5026A5A
:1056A00085B004460B46002A34D10A2908D1438A22
:1056B0000282427E03EBC2036382012005B0F0BD8B
:1056C0000D29FAD0E17E007E657E71B1B4F91060DB
:1056D000062111FB0061B4F90C60B142C1BFB4F9FD
:1056E0001210228201EBC5026282E28A0192A28A32
:1056F0000092CDE90205B4F91220B4F91010204649
:10570000FFF75EFE237E228A03EB430302EB430393
:105710002382D2E70A2907D100230382417E927AAD
:10572000438A01FB0233C7E70D29C6D0157AA94287
:10573000C3D3517A9942C0D351685D1BEDB201EBDE
:10574000C505A87828B3E97819B3E17E267E677E7F
:1057500091B195F905100844B4F9101006FB001139
:10576000B4F90C00814207DD00202082B4F9121048
:10577000927A02FB07126282E28A0192A28A009266
:10578000CDE90267B4F91220B4F910102046FFF7F2
:1057900017FE2979227E238A01FB0233B8E701290B
:1057A00038BF0121017641767047704710B510214E
:1057B0000446FEF774FC204610BD0EB403B503ABDF
:1057C000002153F8042B019301F061FD02B05DF854
:1057D00004EB03B07047000073B504460846227915
:1057E000A36832B1A3B90B4902B0BDE8704001F023
:1057F0002DBC094A267B094D0949647B012E18BF3F
:105800002946CDE900140749FFF7D7FF02B070BD64
:10581000054AEFE7F5B30B0032AE0B00F1B30B0016
:10582000EDB30B000BB40B00E4B30B0010B5044B4D
:1058300003600446C06A08B101F07CF9204610BD3F
:10584000E4B80B0010B50446FFF7F0FF20465021E6
:10585000FEF725FC204610BD002910B54BDBB0F942
:105860000C408C4247DD002A45DBB0F90E409442E3
:1058700041DD847E022C1FD0032C26D0012C04D1C4
:105880000489D24314440A4621B2012B23D0022BAF
:1058900032D083BB002A13460489C06AB8BFD31D27
:1058A000DB1013FB041102F0070201239340425C5A
:1058B00022EA030242541EE00489013C611A448931
:1058C000D243224409B212B2DFE74489013C641A90
:1058D000114622B2D9E7002A04891346B8BFD31D66
:1058E000DB1013FB0411C36A02F00700012282409F
:1058F000585C02435A5410BD002A13460489C06AFA
:10590000B8BFD31DDB1013FB041102F00702012303
:1059100003FA02F2435C5A40CCE7000070B504463B
:105920001D460026FFF7E2FC114B2360666215B9A5
:1059300002F048FB0546FF2384F8333084F8363004
:105940009DF9103084F837300A4BA363012384F8A3
:105950003C30059BA3644FF6FF72069BA286C4E908
:105960000A562664A4F84460E364204670BD00BF74
:10597000E4B80B0030B40B00F8B50446806A0D465D
:1059800090B194F9301001F0DBF9A06A03680021AE
:105990009B689847A06A036829469B689847A06A55
:1059A000BDE8F84001F0D3B994F93530014698B21A
:1059B00002F087FA606A20B12946BDE8F84001F09C
:1059C00049BD0826802794F9330005EA070180B213
:1059D00002F077FA94F93400012180B202F071FAF2
:1059E00094F93400002180B202F06BFA013E4FEAD4
:1059F0005707E8D1F8BD38B50446806A0D4680B136
:105A0000A16C01F063F9002D204614BFA721A62147
:105A1000FFF7B2FFA06A88B1E16CBDE8384001F041
:105A200055B9606A18B104F1380101F0A5FC94F988
:105A30003600002180B202F044FAE4E794F936001F
:105A4000012180B202F03DFA606A18B1BDE8384029
:105A500001F078BC38BD2DE9F8430446806A0D4654
:105A60008F1840B394F9301001F06AF9A06A036806
:105A700000219B6898470126AF42A06A17D01F2ECD
:105A80000CD901F064F994F93010A06A01F058F9CA
:105A9000A06A036800219B6898470126A06A15F850
:105AA000011B036801369B689847F6B2E4E7BDE83E
:105AB000F84301F04CB994F93530014698B202F040
:105AC00000FABD4222D0606A15F8019B18B1494620
:105AD00001F0C0FCF5E708264FF0800894F9330088
:105AE00009EA080180B202F0ECF994F934000121CE
:105AF00080B202F0E6F994F93400002180B202F09D
:105B0000E0F9013E4FEA5808E8D1DAE7BDE8F8834A
:105B1000B0F90A30DA1D48BF03F10E02B0F90830BF
:105B2000C06AD2105A43002103F005B92DE9FF41A4
:105B30001E46C36A9DF8288004460F461546C3B129
:105B40002046FFF7E5FFB4F90A00B4F90810202851
:105B500021DC202301222038CDE9013200EBD07076
:105B600073237339009301EBD171894B40F34F02DA
:105B700021E0B0F90A30D81D48BF03F10E00B4F996
:105B80000830C010584300F0CDFFE0620028D7D1A4
:105B900004B0BDE8F0814038C0F3C03202FA80F2B0
:105BA00040230120CDE90130522352390093794B33
:105BB00001EBD1715210204641F34F01FFF7ACFBCE
:105BC000A06A84F83170002878D0002D74D1B4F91F
:105BD0000A30202B0CBF3C253D2584F83050B8F10D
:105BE000000F01D001F076F8FEB194F937000028DB
:105BF0001BDB012180B202F053F994F93700012137
:105C000080B202F05EF9012000F0D8FF94F937006D
:105C1000002180B202F055F90A2000F0CFFF94F97C
:105C20003700012180B202F04CF9A06A002874D03C
:105C3000A16C01F04BF8042257492046FFF70BFFF7
:105C400061890139C9B22046FFF796FE5349042203
:105C50002046FFF700FF94F93130012B0CBF1021D3
:105C600014212046FFF788FE04224D492046FFF705
:105C7000F2FEA3684B4A93425CD14B490422204672
:105C8000FFF7E9FED9212046FFF776FE94F931307F
:105C9000012B0CBF2221F1212046FFF76DFE20468B
:105CA00042490622FFF7D7FEA06A002863D0E16CC4
:105CB00001F00CF801206BE76DB28EE794F9350026
:105CC000012180B202F0ECF894F93600012180B293
:105CD00002F0E6F894F93600012180B202F0F1F802
:105CE000656A3DB1B8F1000F3FF47EAF284601F080
:105CF00015FB79E794F93300012180B202F0D0F866
:105D000094F93400012180B202F0CAF894F9340009
:105D1000294680B202F0D5F866E7606A18B104F14E
:105D2000380101F029FB94F93600002180B202F01D
:105D3000C8F880E71E4A93420ED11E49032220462E
:105D4000FFF789FE94F93130012B0CBF9F21CF2141
:105D50002046FFF711FE95E7174A934292D1174963
:105D600003222046FFF777FE94F93130012B0CBF58
:105D70001021AF21ECE794F93600012180B202F046
:105D8000A0F8606A002895D001F0DCFA92E700BF25
:105D9000FCB60B003CB40B0044B90B0048B90B0037
:105DA0004CB90B008000200056B90B0050B90B0015
:105DB000800040005AB90B00600010005DB90B0074
:105DC00070B5002ABDF810503DDBB0F90A4094428E
:105DD00039DD0029BEBF5B181BB20021B0F90840B5
:105DE000CE18A642C4BF631A1BB2002B2BDDC06ABB
:105DF000D61014FB0611014402F007000122824074
:105E0000012DD2B216D0022D0BD0E5B9D243D2B2B9
:105E10000B44994217D011F8010B104001F8010C06
:105E2000F7E70B4499420ED011F8010B504001F8EE
:105E3000010CF7E70B44994205D011F8010B104310
:105E400001F8010CF7E770BDF0B50029BDF814505A
:105E500076DBB0F90860B14272DA002ABEBF9B1847
:105E60001BB20022B0F90A40D718A742C4BFA31A38
:105E70001BB2002B64DDC2F3C404C76A16FB041610
:105E800012F00702DBB207EB060423D0C2F10802CE
:105E9000D2B22D4993423CBF4FF0FF0CA2EB030E50
:105EA000895C3CBF4CFA0EFC0CEA0101012D07D0C5
:105EB000022D2ED04DB917F806C02CEA010103E0DF
:105EC00017F806C041EA0C01B955934238D3B0F92E
:105ED00008100C449A1AD2B2072A0ED9022D1DD1ED
:105EE00013462178C9432170083BB0F90810DBB292
:105EF000072B0C44F5D802F007020AB3134B012D0F
:105F00009B5C1AD0022D1CD0D5B9227822EA03035B
:105F100015E017F806C081EA0C01D5E7291E18BF65
:105F200001214942C9B213462170083BB0F908600B
:105F3000DBB2072B3444F7D8DDE722781343237014
:105F4000F0BD22785340FAE734B90B003CB90B009E
:105F500070B41446827EBDF80C60022A0DD0032A6C
:105F600018D0012A11D10289E443144424B20396C3
:105F70000A46214670BCFFF767BF42890589E443A2
:105F800019441444691A24B209B20396224670BC1B
:105F9000FFF716BF45891944691A09B2E7E730B41B
:105FA0001446827EBDF80850022A0DD0032A18D06C
:105FB000012A11D1E2180489A41A24B202950A46D2
:105FC000214630BCFFF7FCBE0289C9431144E218E8
:105FD0004489A41A09B224B20295224630BCFFF7C4
:105FE00033BF4289C943114409B2E7E72DE9F843B9
:105FF0000446806A002842D0A16C00F067FE474941
:1060000005222046FFF727FD218901392046C9B224
:10601000FFF7B2FCB4F90A30DE1D48BF03F10E06EB
:10602000D4E90A052389F61013FB06F615FA86F65D
:1060300000283AD094F9301000F082FEA06A03687C
:1060400040219B6898470127B542A06A24D01F2FA2
:106050000CD900F07CFE94F93010A06A00F070FEBC
:10606000A06A036840219B6898470127A06A15F839
:10607000011B036801379B689847FFB2E4E7606A39
:1060800018B104F1380101F077F994F936000021D4
:1060900080B201F016FFB2E700F059FEA06A78B3B3
:1060A000E16CBDE8F84300F011BE94F93500012120
:1060B00080B201F006FFAE42F0D0606A15F8019B95
:1060C00018B1494601F0C6F9F5E708274FF08008F6
:1060D00094F9330009EA080180B201F0F2FE94F964
:1060E0003400012180B201F0ECFE94F9340000216B
:1060F00080B201F0E6FE013F4FEA5808E8D1DAE746
:1061000094F93600012180B201F0DBFE606A18B11B
:10611000BDE8F84301F016B9BDE8F88360B90B009B
:1061200000210A22C0E900127047002310B504467E
:10613000C171837188B201F0DDFE08B10323A37140
:1061400000F08CFA206010BD38B50C4605461146AB
:10615000A0B201F0A5FE21462846BDE83840FFF771
:10616000E4BF38B50446C07901F0C4FEA579003813
:1061700025F0080318BF0120C5F340058542A3712F
:106180000AD000F06BFAA379206083F00203A371B8
:10619000A079C0F3C00038BD00F060FA2368C01ACF
:1061A000A3889842F4D3A37903F00103AB42EFD064
:1061B00000F054FAA379206083F0010343F0080350
:1061C000E5E7807900F00900A0F108035842584142
:1061D0007047704710B504466021006800F0ACFDC0
:1061E000206800F0B4FDB0FA80F0400910BD38B569
:1061F00005460C460068602100F09EFD2868036893
:1062000021469B6898472868002100F09CFD08B152
:10621000002038BD28680222602100F08AFD28682D
:1062200003681B6998470028F2D0286803685B69F7
:1062300098470446286803685B699847E4B244EAD3
:10624000002080B2E5E70921FFF7D1BF0C21FFF75D
:10625000CEBF70B504460E4600686021154600F0BA
:106260006BFD2068036831469B6898472068036887
:10627000E9B29B68984720680368290A9B68984799
:10628000206800F064FDB0FA80F0400970BD70B580
:1062900004460D461646FFF7AAFF00F47F4040EA89
:1062A000060229462046BDE87040FFF7D2BF70B510
:1062B00004460D461646FFF79AFFC0B240EA062292
:1062C00029462046BDE87040FFF7C3BF08B5FFF779
:1062D0008EFFC0F3072008BD2DE9F04104469DF86C
:1062E00018700D46984616466AB1FFF780FFC0B297
:1062F00000EA080343EA07022946204636B1BDE812
:10630000F041FFF7C4BFFFF7E1FFF1E7BDE8F0415F
:10631000FFF7CDBFB1F5A07F07B50ED29F290ED8EC
:106320004F298CBF40230023009301223F230321E8
:10633000FFF7D2FF03B05DF804FBC023F4E780232E
:10634000F2E707B500210091FE230122FFF7C4FF09
:1063500003B05DF804FB072907B50FD803290FD850
:1063600010D002290CBF0423002300930122F12343
:106370000321FFF7B1FF03B05DF804FB0E23F4E740
:106380000C23F2E70823F0E707B50023009301226E
:10639000FE230321FFF7A0FF03B05DF804FB07B560
:1063A00001220092FE230321FFF796FF03B05DF860
:1063B00004FB07B50F298CBF08230023009300229C
:1063C000F7230321FFF788FF03B05DF804FB07B54F
:1063D000022300930122EF230421FFF77DFF03B086
:1063E0005DF804FBC72907B516D8B32916D89F292D
:1063F00016D88B2916D8772916D8632916D84A2992
:1064000094BF002101210091F82300220421FFF70D
:1064100063FF03B05DF804FB0721F4E70621F2E710
:106420000521F0E70421EEE70321ECE70221EAE78A
:1064300038B504460846216000F04CFC2046FFF7C2
:10644000C9FE054610B90025284638BD2046FFF78D
:10645000FDFEB0F5C37FF6D12046C821FFF7C2FF8D
:1064600020462821FFF756FF20460821FFF773FF3B
:1064700010212046FFF79DFF2046FFF7A8FF20468A
:10648000FFF782FFE0E700F099BB00F0E7B8704744
:106490007047704703065ABF024B53F82000002094
:1064A000704700BF68B90B0003065ABF024B53F890
:1064B00020000020704700BF68BB0B0010B5064BE2
:1064C00003600446006D08B100F0A8F82046FFF70D
:1064D000ADF9204610BD00BF70BD0B0010B50446DD
:1064E000FFF7ECFF20467021FDF7D9FD204610BDD7
:1064F00030B585B004460D4601F064FD104A1149DF
:10650000CDE901214FF0FF32802103460092204661
:106510002022FFF703FA0C4B23600023C4E9143553
:1065200004F15800FFF7FCFD04F16000FFF7F8FDEF
:1065300004F16800FFF7F4FD204605B030BD00BF50
:10654000801A0600A086010070BD0B0013B504463A
:10655000503000F05BF8636DD90705D502220421A5
:1065600004F15800FFF7F0FD636D9A0705D500228E
:10657000032104F16000FFF7E7FD636D5B0705D5BC
:106580000222114604F16800FFF7DEFD01230093AB
:106590003C2202212046FFF7C9FA02B010BD10B517
:1065A000436DD907044602D55830FFF7DAFD636D15
:1065B0009A0703D504F16000FFF7D3FD636D5B0715
:1065C00005D504F16800BDE81040FFF7CABD10BD55
:1065D000436D024613F0010003D002F15800FFF7AB
:1065E000F0BD7047436D024613F0020003D002F184
:1065F0006000FFF7E6BD7047436D024613F00400EC
:1066000003D002F16800FFF7DCBD704708B5024B0C
:106610001B681B6B019308BD4802030008B5024BC1
:106620001B685B6B019308BD4802030008B5024B71
:106630001B685B6C019308BD4802030008B5024B60
:106640001B685B68019308BD1802030008B5024B84
:106650001B68DB68019308BD1802030008B5024BF4
:106660001B685B69019308BD1802030008B5024B63
:106670001B685B68019308BD2C02030008B5024B40
:106680001B689B68019308BD2C02030008B5024BF0
:106690001B68DB68019308BD2C02030008B5024BA0
:1066A0001B681B69019308BD2C02030008B5024B4F
:1066B0001B685B69019308BD2C02030008B5024BFF
:1066C0001B689B6A019308BD2C02030008B5024BAE
:1066D0001B681B6B019308BD2C02030008B5024B1D
:1066E0001B689B6F019308BD2C02030008B5024B89
:1066F0001B681B68019308BD2802030008B5024B04
:106700001B68DB68019308BD2802030008B5024B33
:106710001B689B69019308BD2802030008B5024B62
:106720001B68DB69019308BD2802030008B5024B12
:106730001B681B6A019308BD2802030008B5024BC1
:106740001B685B6A019308BD2802030008B5024B71
:106750001B689B6A019308BD2802030008B5024B21
:106760001B68DB6A019308BD2802030008B5024BD1
:106770001B681B6B019308BD2802030008B5024B80
:106780001B685B6B019308BD2802030008B5024B30
:106790001B681B6C019308BD2802030008B5024B5F
:1067A0001B681B6D019308BD2802030008B5024B4E
:1067B0001B685B69019308BD6C02030008B5024BBE
:1067C0001B685B69019308BD6402030008B5024BB6
:1067D0001B681B6A019308BD6402030008B5024BE5
:1067E0001B689B6A019308BD6402030008B5024B55
:1067F0001B689B68019308BD6802030008B5024B43
:106800001B68DB68019308BD6802030008B5024BF2
:106810001B689B69019308BD3802030008B5024B51
:106820001B68DB69019308BD3802030008B5024B01
:106830001B681B6A019308BD3802030008B5024BB0
:106840001B689B6A019308BD3802030008B5024B20
:106850001B681B6B019308BD3802030008B5024B8F
:106860001B689B6B019308BD3802030008B5024BFF
:106870001B681B68019308BD3002030008B5024B7A
:106880001B685B69019308BD3002030008B5024B29
:106890001B68DB69019308BD3002030008B5024B99
:1068A0001B681B6A019308BD3002030008B5024B48
:1068B0001B685B6A019308BD3002030008B5024BF8
:1068C0001B68DB6B019308BD3002030008B5024B67
:1068D0001B681B6C019308BD3002030008B5024B16
:1068E0001B685B6C019308BD3002030008B5024BC6
:1068F0001B68DB68019308BD3C02030008B5024B2E
:106900001B681B69019308BD3C02030008B5024BDC
:106910001B685B69019308BD3C02030008B5024B8C
:106920001B689B69019308BD3C02030008B5024B3C
:106930001B68DB69019308BD3C02030008B5024BEC
:106940001B681B6A019308BD3C02030008B5024B9B
:106950001B689B6A019308BD3C02030008B5024B0B
:106960001B681B6C019308BD3C02030008B5024B79
:106970001B681B68019308BD4C02030008B5024B5D
:106980001B681B69019308BD4C02030008B5024B4C
:106990001B685B69019308BD4C02030008B5024BFC
:1069A0001B689B69019308BD4C02030008B5024BAC
:1069B0001B68DB69019308BD4C02030008B5024B5C
:1069C0001B681B6A019308BD4C02030008B5024B0B
:1069D0001B685B6B019308BD6002030008B5024BA6
:1069E0001B681B6D019308BD6002030008B5024BD4
:1069F0001B685B68019308BD2002030008B5024BC9
:106A00001B685B69019308BD2002030008B5024BB7
:106A10001B68DB6A019308BD2002030008B5034B25
:106A20001B68D3F88830019308BD000020020300E2
:106A300008B5034B1B68D3F89430019308BD0000E0
:106A40002002030008B5024B1B689B68019308BD38
:106A50004402030008B5024B1B68DB6B019308BDC1
:106A60004402030008B5024B1B685B68019308BD34
:106A70004002030008B5024B1B689B68019308BDE8
:106A80004002030008B5024B1B68DB68019308BD98
:106A90004002030008B5024B1B681B69019308BD47
:106AA0004002030008B5024B1B685B69019308BDF7
:106AB0004002030008B5024B1B689B69019308BDA7
:106AC0004002030008B5024B1B68DB69019308BD57
:106AD0004002030008B5024B1B681B6A019308BD06
:106AE0004002030008B5024B1B681B6B019308BDF5
:106AF0004002030008B5024B1B685B6B019308BDA5
:106B00004002030008B5024B1B681B6C019308BDD3
:106B10004002030008B5024B1B685B6C019308BD83
:106B20004002030008B5024B1B681B68019308BDB7
:106B30001C02030008B5024B1B685B68019308BD8B
:106B40001C02030008B5024B1B68DB69019308BDFA
:106B50001C02030008B5024B1B685B6A019308BD69
:106B60001C02030008B5024B1B681B6B019308BD98
:106B70001C02030008B5024B1B68DB6B019308BDC8
:106B80001C02030008B5024B1B681B6C019308BD77
:106B90001C02030008B5024B1B685B6C019308BD27
:106BA0001C0203008A4210B507D0441A0298C01A8A
:106BB0004443501A94FBF0F0184410BD0021FFF735
:106BC0001DBF0000024800230360FFF72FBD00BF78
:106BD000C4E60320002240681146FFF77BBF002275
:106BE00040681146FFF786BF40680022FFF77ABF72
:106BF0004068002281F00101FFF764BF0023406874
:106C00001A461946FFF756BF002340681A46194630
:106C1000FFF748BF002240681146FFF73BBF002244
:106C200040681146FFF726BF406800220221FFF7A7
:106C300029BF002340681A46FFF714BF024B032206
:106C40005A60024A1A607047C8E60320D0BD0B00A4
:106C50007047F8B5064615460C468F18BC4206D05C
:106C6000336814F8011B9B6830469847F6E72846BE
:106C7000F8BD007C0022FFF759BD007C0021FFF722
:106C80005DBD007C0021FFF761BD007C0021FFF7A6
:106C900065BD007C0021FFF769BD10B514210446D5
:106CA000FDF7FDF9204610BD10B54FF47A73044688
:106CB00008460021C4E90113034B236020741146E8
:106CC000FFF764FD204610BD0CBE0B00007C0022C7
:106CD000FFF70CBD0023007C1A461946FFF70EBDD6
:106CE0007FB500221423CDE90122ADF804300B78E2
:106CF0008DF808304B680393CB680493007C0B7AC3
:106D0000059301A9FFF74AFD07B05DF804FB1FB525
:106D1000003B8DF800104FF06401039118BF012370
:106D2000694601928DF80830FFF7DAFF05B05DF88B
:106D300004FB0123FFF7EBBF007C0022FFF7E6BC5A
:106D4000C9B2FFF7F9BF007C0022FFF7E7BC0121C1
:106D5000FFF7F9BF704710B518210446FDF79FF9FA
:106D6000204610BDF0B5037D062B8DB00E4600F118
:106D700004074FF0000412D000F1080515F8011DBA
:106D80000A22304600F07FF9AF42044419D0002CAB
:106D9000F4D02E21304600F05DF90444EEE72F23B5
:106DA0006A4639460A208DF80040FFF707FD68461D
:106DB00002F002F833680246DB68694630469847BD
:106DC000044620460DB0F0BD10B5054B0446112217
:106DD00040F8043B002101F0AEFF204610BD00BF8B
:106DE00034BE0B000346074A10B543F8042B01F1EB
:106DF000100251F8044B43F8044B9142F9D10A7840
:106E00001A7010BD34BE0B00037D042B04D1406802
:106E1000003818BF01207047062B07D143683BB9E3
:106E200083682BB9C3681BB90069F1E7002070477C
:106E30000120704710B59DF8084044EA032343EA57
:106E4000024242EA016104234160037510BD000063
:106E500013B5044C04609DF810400094FFF7EAFF5E
:106E600002B010BD34BE0B0007B5064B0360CB78F3
:106E700000938B784A780978FFF7DCFF03B05DF860
:106E800004FB00BF34BE0B00014B024A1A6070477E
:106E9000D0E6032040BE0B00002340681A46FFF7EF
:106EA000E1BD406800220221FFF7ECBD00224068EE
:106EB0001146FFF7DFBD002240681146FFF7EABD2B
:106EC000002340681A461946FFF7ECBD00234068CE
:106ED0001A461946FFF7EEBD40680021FFF712BEC3
:106EE00040680021FFF716BE4068002281F00101D2
:106EF000FFF7E8BD40680022FFF7F4BD00224068BC
:106F00001146FFF7F7BD002240681146FFF7E2BDCA
:106F10002DE9F04395B014460D460746FFF754FFA0
:106F200000211C220DA8009101F005FF40230C93C5
:106F300020466B460CAA0021FFF760FC044600289F
:106F40004BD1024601216868FFF7A4FD022180466B
:106F500022466868FFF79EFD009E81462146002E6E
:106F60003BD0002939D17368022B03D00A2B11D0F2
:106F7000F669F4E7B8F1000FFAD0716906A8043198
:106F800007ADFFF771FF0FCD3C1D0FC42B682370B9
:106F90004146EDE7B9F1000FEAD07469102201A86B
:106FA00001F0C9FE06238DF8143001AD04F1080389
:106FB0001834186859682A4603C20833A342154694
:106FC000F7D101A906A807ADFFF70CFF0FCD3C1DB7
:106FD0000FC42B6823704946CAE70098FFF706FCE8
:106FE000384615B0BDE8F083024B034A1A60002210
:106FF0005A607047D4E603204CBE0B00F8B5064635
:107000000D468F180024BD420CD0336815F8011BC3
:107010009B6830469847031E01DB1C44F3E7002CB5
:1070200008BF1C462046F8BD13B50446084659B1B2
:10703000019101F0C1FE23680199DB6802462046F8
:1070400002B0BDE81040184702B010BD08B5FFF708
:10705000EBFF08BD03689B68184738B50D2105464E
:10706000FFF7F8FF0A2104462846FFF7F3FF204404
:1070700038BD38B50546FFF7D7FF04462846FFF769
:10708000ECFF204438BD30B58BB00023012A8DF8C9
:10709000243098BF0A2209AC0D46B1FBF2F101FB86
:1070A000125303F0FF03092B94BF30333733DBB2A5
:1070B000AA4204F8013DEFD92146FFF7B5FF0BB016
:1070C00030BD00002DE9F74F55EC104B06460F463A
:1070D00010EE102A10EE100A2B46294601F040FD52
:1070E00040B153493046FFF79FFF8246504603B0F8
:1070F000BDE8F08F25F000494E4B4FF0FF3220469F
:10710000494601F02DFD48B94A4B4FF0FF32204669
:10711000494601F007FD08B94749E3E7474B4FF0FF
:1071200060422046294601F011FD08B14449D9E7E3
:10713000444B4FF060422046294601F0E9FC00280C
:10714000F4D1002200232046294601F0E1FCD0B111
:107150002D213046FFF77EFF05F1004382461D4694
:107160003949DFF8EC904FF0000B00204FF0000899
:107170005FFA8BF39F4208D942464B4601F080FBF1
:107180000BF1010BF4E78246EAE722462B4601F0B9
:1071900097F80D46044601F021FD804601F0CCF938
:1071A00002460B462046294601F088F80A2204468A
:1071B0000D4630464146FFF766FF8244002F95D0CA
:1071C0002249DFF88C903046FFF72EFF4FF0000881
:1071D0008244002F8AD042464B462046294601F081
:1071E00025FA04460D4601F0D1FCB0F1000B1CDA83
:1071F0002D213046FFF72EFFCBF1000103460A2276
:1072000030460193FFF73FFF019B184482445846E4
:1072100001F0A2F902460B462046294601F04EF83D
:10722000013F04460D46FFB2D3E759460023E6E787
:1072300080BE0B00FFFFEF7F84BE0B00FFFFEF411E
:1072400088BE0B00FFFFEFC10000E03F8CBE0B00CB
:1072500000002440C9B2FFF735BF38B5C9B20546B2
:10726000FFF730FF04462846FFF7F7FE204438BDFD
:1072700038B5044610EE100A0D4601F07FF941ECD6
:10728000100B29462046BDE83840FFF7E6BF2DE940
:10729000F04186B000AF05460E46381D1421144655
:1072A0003B60FFF757FC13280ED8391D2846FFF71F
:1072B000BBFE04461EB12846FFF7CFFE044420461D
:1072C0001837BD46BDE8F08100F1080323F007033D
:1072D000E846ADEB030D2246411C3B686846FFF7CC
:1072E00039FC69462846FFF79FFE0446C546E1E79C
:1072F000014B00229A607047DCE603200021FFF773
:10730000EDBA0021FFF7E2BA10B504460846217035
:10731000FFF7BCFA00236360204610BD13B5044696
:107320000078FFF7EEFF58B9207801904FF6FF7113
:10733000FFF79CFA019802B0BDE81040FFF7DEBFEE
:1073400002B010BD0078FFF7D9BF0000400830B58B
:107350001860002418688842E5B206D90134082C68
:1073600002D040081860F5E70725024B5B5D1370FB
:1073700030BD00BF8EBE0B002DE9F04306468FB036
:1073800000780C46FFF7BDFF00281BDB3578142280
:10739000002109A801F0CFFC0B23002209A92846EF
:1073A000ADF82430FFF782FA9DF82D3013B19DF827
:1073B0002C5055B10027B946B846012523795DB157
:1073C000C3B100200FB0BDE8F083DDF830809DF838
:1073D00034909DF83570F1E7002B35D1A368434513
:1073E00008D18DF820908DF82170BDF82020A38958
:1073F0009A42E6D00023A1688DF80F300A9804ABBA
:107400000DF10F02FFF7A2FF217985B989B9A368B1
:1074100043450ED38DF820908DF82170BDF82020C3
:10742000A3899A4205D1049B434502D1C9E70029AB
:10743000F9D100230193637B00939DF80F20237BF8
:107440003078FFF73BFABCE7CDE900552B462A46DA
:107450000121F5E708B50078FFF710FAC0B208BDC2
:1074600010B50446FFF7FAF8E060236820465B6930
:107470009847002808DAFFF7F1F8E368C01AA36814
:107480009842F2D34FF0FF3010BD2DE9F04107468E
:107490000C468E180D46B542A5EB040807D03846B9
:1074A000FFF7DEFF031E02DB05F8013BF3E7404672
:1074B000BDE8F081054B02221A60054B054A9A602F
:1074C0000020C3E90000FFF791BA00BFF8E60320EF
:1074D000ECE603200000FFFF13B503688DF80710EA
:1074E000DC6B01224FF0FF330DF10701A04702B022
:1074F00010BD10B40368DC6B4FF0FF33A4465DF899
:10750000044B604713B5134602688DF80710D46B1F
:107510000DF107010122A04702B010BD10B543696B
:10752000B3F88620B3F884309A42044608D06369E1
:10753000B3F88420511CA3F884101344187910BDAB
:1075400003681B6998470028F1D14FF0FF30F6E738
:10755000704743691868C043C00F70477047000008
:10756000064B994210B500F10C0405D0084600F016
:107570008FFD002808BF0024204610BDC0BD0B00B1
:1075800010B5AC210446FCF78AFD204610BDAC21A5
:10759000FCF785BD2DE9F0414FF0000886B01C4690
:1075A000C0F8048005460E4617464146102202A840
:1075B00001F0C1FB631C09D04FF47A73B4FBF3F202
:1075C00003FB1244CDE902285C430494686910234C
:1075D0000093006802AB41F2050240F6FF71FFF72D
:1075E00015F9002807DAFFF7C5FA03686B60002079
:1075F00006B0BDE8F0816869002300683A4631466C
:10760000FFF724F9031EEEDB1846F1E738B584696D
:107610000A4B036005467CB16368013B63605BB95C
:10762000236820469B689847A368013BA3601BB969
:1076300023682046DB689847284638BDD4BE0B0037
:1076400010B50446FFF7E2FF20461C21FCF727FD9A
:10765000204610BD30B587B0044601AD6846FFF73F
:1076600003FC0FCD04340FC42B68237007B030BD6A
:1076700070B54D69054B04468C3544F8043B06460D
:107680000FCD0FC42B682370304670BD34BE0B0085
:107690002DE9F0439846036893B00D460024DB6A59
:1076A00006461746984728466B46224621460094D0
:1076B000FFF7A4F80546002863D1009B002B4BD0B0
:1076C0005B69002B48D006A8FFF77EFB009B5C6936
:1076D0006378022B04D1211D06A8FFF7BBFF26E02B
:1076E0000A2B24D11122294601A801F024FBA3680A
:1076F000002B38D004F108030DF1040C183418687D
:107700005968624603C20833A3429446F7D1062360
:1077100001A90CA88DF81430FFF764FB0DF1340CAF
:10772000BCE80F0007AC0FC4DCF80030237006A8DB
:10773000FFF76AFB80B1336807ADD3F82090124B96
:107740000C930FCD0DAC0FC42B6823703A46434603
:107750000CA93046C84705460098FFF747F8284669
:1077600013B0BDE8F083E368002BC3D14FF6FF7080
:10777000D4F81090FFF72AF88145BBD104F1140129
:10778000AAE72546E8E700BF34BE0B0038B54369D9
:107790001A68002A054610DAB3F88620B3F8843058
:1077A0009A420AD103681B699847044628B92B6896
:1077B0002846DB6A9847204638BD0120FCE710B513
:1077C0004369B3F88620B3F884309A42044605D062
:1077D0006369B3F884201344187910BD03681B69EA
:1077E00098470028F4D14FF0FF30F6E7F8B5436929
:1077F0001746B3F88620B3F884309A4205460E4601
:1078000016D06969B1F88430B1F88640E41ABC42F8
:1078100028BF3C46043322461944304601F07DFA25
:107820006A69B2F884302344A2F884302046F8BD57
:1078300003681B6998470028E3D14FF0FF34F5E750
:1078400042690023A2F884304269A2F8863070476A
:107850002DE9F0411F4603680C46DB6A8AB00546F5
:1078600016469847237DD5F81480042B0CBF0220C0
:107870000A2006220121FEF7F1FFC8F800006B691B
:107880001B68002B08DA2B682846DB6A002498471F
:1078900020460AB0BDE8F0812846FFF7D1FFB7B116
:1078A000002303A9F8B20393ADF81030FEF77EFF72
:1078B0000028E8D1686906230093006803AB41F211
:1078C0000B0240F6FF71FEF7A1FF0028DBD11C225E
:1078D000002103A801F02FFA237D042B1DD14FF4C2
:1078E00007733046ADF80C30FEF778FFADF80E00A8
:1078F0006068FEF76BFF04906B691C22186803A98F
:10790000FEF794FF0028BED104340FCC6D698C358E
:107910000FC523682B700124BAE740F61C233046BC
:10792000ADF80C30FEF75AFF05AEADF80E00231D82
:1079300004F1140718685968324603C20833BB4281
:107940001646F7D1D8E7000030B54269B2F8863064
:107950008BB004462BB1B2F884209A4201D1FFF7D4
:107960006FFF61690868002818DBB1F886507F2D29
:1079700014D804310823C5F180022944FEF75EFFC4
:10798000002813DD6369B3F886200AB9A3F88420C0
:107990006369B3F886201044A3F886006369B3F8DE
:1079A0008600B3F88430C01A0BB030BDFFF7E2F8A0
:1079B00003680B2BF2D0FFF7DDF803680B2BEDD03B
:1079C00020230025CDE90235FFF7D4F803680193A1
:1079D000084B0949009302AA2B463220FEF7FEFF0E
:1079E00063691868FEF71AFF63694FF0FF321A6087
:1079F000D4E700BF9DBE0B0096BE0B0010B54369D7
:107A000004461868002801DBFEF708FF63694FF0A1
:107A1000FF321A606069112200218C3001F08BF96D
:107A20002046BDE81040FFF70BBF10B50023044609
:107A30000160C0F884308830FFF7C6F9204610BDD9
:107A400073B500234FF47A72C0E901320E4A036124
:107A5000026043610446AC200191FCF71CFB051E4B
:107A600005F10C0608D00123C5E90133074B019944
:107A70002B603046FFF7D9FF2046C4E90565FFF7C4
:107A8000DFFE02B070BD00BFD4BE0B00B8BE0B005D
:107A900010B54FF0FF310446FFF7D2FF204610BD6E
:107AA00010B504460068002801DBFEF7B7FE20464B
:107AB00010BD0C30FFF7F4BF024B1A68024B1A607E
:107AC000704700BFE8E30320FCE6032070474174E1
:107AD000704708B5007CFEF739FF20EAE07008BD6A
:107AE00008B5007CFEF70AFF20EAE07008BD08B583
:107AF000007CFEF713FF40EAE07008BD08B5007C8B
:107B0000FEF704FF40EAE07008BD007CFEF70EBF00
:107B100037B5457C04462DB1207C03B0BDE830402C
:107B2000FEF7E4BE007C0191FEF710FF00280199EA
:107B3000F2DC284603B030BD10B514210446FCF732
:107B4000AEFA204610BD000010B54FF47A7304461B
:107B5000084611460022C4E90123044B2360012397
:107B600020746374FEF7FAFE204610BD3CBF0B0084
:107B7000417470477047704708B50021007CFEF7DC
:107B80000DFF40EAE07008BD08B50121007CFEF75A
:107B900005FF40EAE07008BD08B5007CFEF7F6FE80
:107BA00020EAE07008BD08B5007CFEF7E7FE20EA99
:107BB000E07008BD13B50446007C0191FEF7E6FEB7
:107BC0000028019901DC607C20B1207CFEF7EEFEEC
:107BD00020EAE07002B010BD007CFEF7EFBE10B5E9
:107BE00014210446FCF75BFA204610BD10B54FF493
:107BF0007A73044608460021C4E90113044B23604C
:107C00000123207463741146FEF7B0FE204610BDB8
:107C10006CBF0B0010B514220446002101F08BF854
:107C2000204610BD10B50F4C88B003A8FFF7F2FF37
:107C30002178BFF35B8F11F001010FD12046019134
:107C4000FCF73CFA019948B103AA0748FFF7CEFFB9
:107C50002046FCF738FA054801F04EF8024808B013
:107C600010BD00BF00E7032004E70320757B0B0075
:107C7000002240681146FEF70DBF00224068114601
:107C8000FEF728BF002240681146FEF733BF406868
:107C90000022FEF727BF4068002281F00101FEF7B5
:107CA00011BF002340681A461946FEF703BF0023A0
:107CB00040681A461946FEF7F5BE00224068114694
:107CC000FEF7D8BE406800220221FEF7DBBE00238B
:107CD00040681A46FEF7C6BE024B04225A60024AAA
:107CE0001A60704718E703209CBF0B00014B186017
:107CF000704700BFECE3032008B50B4B43B1FFF71F
:107D000091FF03681B699847002801DDAFF30080ED
:107D1000064B43B100F096F903681B6998470028A9
:107D200001DDAFF3008008BD00000000000000008E
:107D300008B5FFF7E1FFFEF791FC014B186008BDA5
:107D400028E703200548064A064908B5121A00F03C
:107D5000E4FF054B054A1A6008BD00BF00F403208C
:107D600004F40320B4C40B0000F403201E1C279A63
:107D700007B5002300931A466FF07701FEF758FE0F
:107D800003B05DF804FB000007B543880A2B08D058
:107D9000502B0BD1094B1B684BB103B05DF804EBC2
:107DA0001847FFF7E5FF03B05DF804FB00230093DD
:107DB0001A466FF07701FEF73BFEF4E724E7032055
:107DC00010B512480021FEF7E5FE114B1A68114B61
:107DD0009A42114B0CBF012200221A7001D0FFF70A
:107DE000B1FFFEF72BFC044600F0AEFF0B4B13B1C6
:107DF0002046AFF3008000210848FEF72BFEBDE8C7
:107E0000104007480021FEF709BE00BFED7C0B00C3
:107E100000F403201E1C279A20E703200000000026
:107E2000897D0B00232813B502D9002002B010BDB4
:107E3000A0F10B03022B1AD8174C2178BFF35B8FEC
:107E400011F001010BD120460191FCF737F901999E
:107E500028B11248FFF758FA2046FCF734F90F4BC7
:107E60001878FEF71BFD0028DFD10120DEE701288E
:107E700009D800F0A7F80021007CFEF77FFC80F015
:107E80000100C0B2D2E709380128EED800F0DAF8D4
:107E9000007CFEF753FDF2E7B8E60320BCE60320C2
:107EA000232838B504460D460AD8FF2908D0FFF725
:107EB000B9FF28B129462046BDE83840FEF7DEBBB1
:107EC00038BD38B504460D46FEF7E0FBFF2810D05C
:107ED000062804D84D2323FA00F0C30709D420460E
:107EE000FFF7A0FF28B129462046BDE83840FEF73D
:107EF000D5BB38BD10B50446FEF7C8FB031FDBB287
:107F0000012B08D92046FFF78DFF20B12046BDE8A0
:107F10001040FEF7CBBB002010BD0D2810B5044665
:107F20009CBF0E34A4B22046FFF77CFF50B1032162
:107F30002046FEF79BFB032804D12046BDE81040F5
:107F4000FEF7C4BB002010BD38B504460D46FFF750
:107F500069FFF0B104212046FEF788FB042805D113
:107F6000A9B22046BDE83840FEF7A8BB0221204652
:107F7000FEF77CFB02280CD12046FEF787FB012888
:107F800001D0042805D129462046BDE83840FEF737
:107F9000A5BB38BD7047000038B520251423044622
:107FA0000360856005610649284600F06FF80449C2
:107FB0006060284600F06AF8E060204638BD00BFE7
:107FC000D0BF0B0030B50E4D2978BFF35B8F11F099
:107FD000010487B011D12846FCF770F868B101A8F8
:107FE000FFF7DAFF01AA21460648FEF75DFE2846A4
:107FF000FCF769F8044800F07FFE024807B030BD86
:108000002CE7032030E70320957F0B00704700002A
:1080100038B5044614252A46002100F08CFE258040
:108020004025074925812846258200F02FF804497C
:108030006060284600F02AF8E060204638BD00BFA6
:10804000D0BF0B0030B50E4D2978BFF35B8F11F018
:10805000010487B011D12846FCF730F868B101A8B7
:10806000FFF7D6FF01AA21460648FFF76DFD284617
:10807000FCF729F8044800F03FFE024807B030BD85
:1080800044E7032048E703200D800B00FCF705B808
:10809000014900F0F9B800BFECBF0B007FB5002428
:1080A0001023CDE90234036815469E6912686B46B9
:1080B000CDE90044B0479DF8043003F00603062BD9
:1080C00003BF009B2B600120204604B070BD0098C8
:1080D000904214BF012006207047000010B5034BEA
:1080E0000360044600F0CDF8204610BD2CC00B0004
:1080F00010B50446FFF7F2FF20460821FBF7CFFF3B
:10810000204610BD2DE9F0411F46DDE90834DDF8B9
:10811000188098450646154607D1079900F0B4F82F
:1081200018B165710020BDE8F0813946304600F095
:10813000ABF80028F6D00123C4F800802571A371A4
:10814000F0E738B515461C4600F09EF820B108232C
:10815000E36006232560237138BD73B505460C46E0
:1081600001921E4600F090F850B9032E08D82368FB
:10817000019A5B692946204602B0BDE87040184765
:1081800002B070BD10B5034B03600446FFF7A6FFB5
:10819000204610BD8CC00B0010B50446FFF7F2FF5F
:1081A00020460C21FBF77BFF204610BDF7B5089F4A
:1081B000974205460E4614460AD0A86802680897FA
:1081C000156A31462246AC4603B0BDE8F040604730
:1081D0001946019300F058F8019B0028EDD00620C5
:1081E00003B0F0BD2DE9F14F0D461946DDE90A4B0C
:1081F000DDE90CA681461746984600F045F890B197
:10820000002D3460377109DB61198A450CBF0621E6
:108210000121B171002001B0BDE8F08F0235F9D124
:108220000123B371F6E7544506D15946484600F09C
:108230002BF808B17771EDE7D9F808000368CDE9AC
:108240000CA6CDE90A4BDC693A4643462946A446CA
:1082500001B0BDE8F04F60472DE9F04107460C46FC
:1082600015461E46FFF76DFF48B9B86803689F6959
:108270002A4633462146BC46BDE8F0416047BDE88A
:10828000F081704700207047814208B50ED04068E9
:1082900003782A2B0CD049680B782A2B08BF0131B0
:1082A00000F080FDB0FA80F0400908BD0120FCE735
:1082B0000020FAE781F0004102E000BF83F00043B4
:1082C00030B54FEA41044FEA430594EA050F08BF71
:1082D00090EA020F1FBF54EA000C55EA020C7FEA35
:1082E000645C7FEA655C00F0E2804FEA5454D4EBB2
:1082F0005555B8BF6D420CDD2C4480EA020281EA7C
:10830000030382EA000083EA010180EA020281EAB3
:108310000303362D88BF30BD11F0004F4FEA013105
:108320004FF4801C4CEA113102D0404261EB410114
:1083300013F0004F4FEA03334CEA133302D052429A
:1083400063EB430394EA050F00F0A780A4F1010456
:10835000D5F1200E0DDB02FA0EFC22FA05F2801890
:1083600041F1000103FA0EF2801843FA05F3594176
:108370000EE0A5F120050EF1200E012A03FA0EFCF5
:1083800028BF4CF0020C43FA05F3C01851EBE3711F
:1083900001F0004507D54FF0000EDCF1000C7EEB3C
:1083A00000006EEB0101B1F5801F1BD3B1F5001F7A
:1083B0000CD349085FEA30004FEA3C0C04F1010499
:1083C0004FEA445212F5800F80F09A80BCF1004FC2
:1083D00008BF5FEA500C50F1000041EB045141EA44
:1083E000050130BD5FEA4C0C404141EB0101013C0D
:1083F00028BFB1F5801FE9D291F0000F04BF0146FC
:108400000020B1FA81F308BF2033A3F10B03B3F1CD
:1084100020020CDA0C3208DD02F1140CC2F10C025D
:1084200001FA0CF021FA02F10CE002F11402D8BFBB
:10843000C2F1200C01FA02F120FA0CFCDCBF41EA87
:108440000C019040E41AA2BF01EB0451294330BD56
:108450006FEA04041F3C1CDA0C340EDC04F1140433
:10846000C4F1200220FA04F001FA02F340EA03000A
:1084700021FA04F345EA030130BDC4F10C04C4F150
:10848000200220FA02F001FA04F340EA0300294630
:1084900030BD21FA04F0294630BD94F0000F83F47A
:1084A000801306BF81F480110134013D4EE77FEA5D
:1084B000645C18BF7FEA655C29D094EA050F08BFA9
:1084C00090EA020F05D054EA000C04BF194610468A
:1084D00030BD91EA030F1EBF0021002030BD5FEACE
:1084E000545C05D14000494128BF41F0004130BDF6
:1084F00014F580043CBF01F5801130BD01F000454A
:1085000045F0FE4141F470014FF0000030BD7FEABC
:10851000645C1ABF194610467FEA655C1CBF0B46B7
:10852000024650EA013406BF52EA033591EA030FCE
:1085300041F4002130BD00BF90F0000F04BF0021C6
:10854000704730B54FF4806404F132044FF00005F9
:108550004FF0000150E700BF90F0000F04BF002172
:10856000704730B54FF4806404F1320410F00045D8
:1085700048BF40424FF000013EE700BF42004FEAD3
:10858000E2014FEA31014FEA02701FBF12F07F4350
:1085900093F07F4F81F06051704732F07F4208BF07
:1085A000704793F07F4F04BF41F40021704730B50E
:1085B0004FF4607401F0004521F000411CE700BF5A
:1085C00050EA010208BF704730B54FF000050AE0DD
:1085D00050EA010208BF704730B511F0004502D5DE
:1085E000404261EB41014FF4806404F132045FEAE0
:1085F000915C3FF4D8AE4FF003025FEADC0C18BF89
:1086000003325FEADC0C18BF033202EBDC02C2F17A
:10861000200300FA03FC20FA02F001FA03FE40EA0C
:108620000E0021FA02F11444BDE600BF70B54FF010
:10863000FF0C4CF4E06C1CEA11541DBF1CEA1355EE
:1086400094EA0C0F95EA0C0F00F0DEF82C4481EA56
:10865000030621EA4C5123EA4C5350EA013518BF76
:1086600052EA033541F4801143F4801338D0A0FB63
:1086700002CE4FF00005E1FB02E506F00042E0FB10
:1086800003E54FF00006E1FB03569CF0000F18BF16
:108690004EF0010EA4F1FF04B6F5007F64F54074BE
:1086A00004D25FEA4E0E6D4146EB060642EAC62151
:1086B00041EA55514FEAC52040EA5E504FEACE2EBE
:1086C000B4F1FD0C88BFBCF5E06F1ED8BEF1004FC1
:1086D00008BF5FEA500E50F1000041EB045170BD3D
:1086E00006F0004646EA010140EA020081EA030181
:1086F000B4EB5C04C2BFD4EB0C0541EA045170BD7D
:1087000041F480114FF0000E013C00F3AB8014F1F6
:10871000360FDEBF002001F0004170BDC4F100043F
:10872000203C35DA0C341BDC04F11404C4F12005C0
:1087300000FA05F320FA04F001FA05F240EA02001B
:1087400001F0004221F0004110EBD37021FA04F651
:1087500042EB06015EEA430E08BF20EAD37070BD0B
:10876000C4F10C04C4F1200500FA04F320FA05F06A
:1087700001FA04F240EA020001F0004110EBD3706C
:1087800041F100015EEA430E08BF20EAD37070BDDC
:10879000C4F1200500FA05F24EEA020E20FA04F3B5
:1087A00001FA05F243EA020321FA04F001F0004164
:1087B00021FA04F220EA020000EBD3705EEA430ED5
:1087C00008BF20EAD37070BD94F0000F0FD101F004
:1087D0000046400041EB010111F4801F08BF013C3D
:1087E000F7D041EA060195F0000F18BF704703F07B
:1087F0000046520043EB030313F4801F08BF013D02
:10880000F7D043EA0603704794EA0C0F0CEA1355BD
:1088100018BF95EA0C0F0CD050EA410618BF52EA77
:108820004306D1D181EA030101F000414FF000007D
:1088300070BD50EA410606BF1046194652EA43068B
:1088400019D094EA0C0F02D150EA013613D195EAFF
:108850000C0F05D152EA03361CBF104619460AD147
:1088600081EA030101F0004141F0FE4141F4700151
:108870004FF0000070BD41F0FE4141F4780170BD41
:1088800070B54FF0FF0C4CF4E06C1CEA11541DBFA6
:108890001CEA135594EA0C0F95EA0C0F00F0A7F8A8
:1088A000A4EB050481EA030E52EA03354FEA0131D5
:1088B00000F088804FEA03334FF0805545EA1313E8
:1088C00043EA12634FEA022245EA111545EA1065B0
:1088D0004FEA00260EF000419D4208BF964244F147
:1088E000FD0404F5407402D25B084FEA3202B61A66
:1088F00065EB03055B084FEA32024FF480104FF43A
:10890000002CB6EB020E75EB030E22BFB61A7546AD
:1089100040EA0C005B084FEA3202B6EB020E75EB40
:10892000030E22BFB61A754640EA5C005B084FEAA8
:108930003202B6EB020E75EB030E22BFB61A754675
:1089400040EA9C005B084FEA3202B6EB020E75EB80
:10895000030E22BFB61A754640EADC0055EA060E41
:1089600018D04FEA051545EA16754FEA06164FEA84
:10897000C30343EA52734FEAC2025FEA1C1CC0D130
:1089800011F4801F0BD141EA00014FF000004FF0BD
:10899000004CB6E711F4801F04BF01430020B4F17E
:1089A000FD0C88BFBCF5E06F3FF6AFAEB5EB030C36
:1089B00004BFB6EB020C5FEA500C50F1000041EB33
:1089C000045170BD0EF0004E4EEA113114EB5C0400
:1089D000C2BFD4EB0C0541EA045170BD41F48011D3
:1089E0004FF0000E013C90E645EA060E8DE60CEADB
:1089F000135594EA0C0F08BF95EA0C0F3FF43BAFF8
:108A000094EA0C0F0AD150EA01347FF434AF95EAAE
:108A10000C0F7FF425AF104619462CE795EA0C0F92
:108A200006D152EA03353FF4FDAE1046194622E75F
:108A300050EA410618BF52EA43067FF4C5AE50EA39
:108A400041047FF40DAF52EA43057FF4EBAE12E729
:108A50004FF0FF3C06E000BF4FF0010C02E000BF0A
:108A60004FF0010C4DF804CD4FEA410C7FEA6C5CED
:108A70004FEA430C18BF7FEA6C5C1BD001B050EA90
:108A8000410C0CBF52EA430C91EA030F02BF90EA7B
:108A9000020F0020704710F1000F91EA030F58BF3A
:108AA000994208BF90422CBFD8176FEAE37040F09C
:108AB000010070474FEA410C7FEA6C5C02D150EA3A
:108AC000013C07D14FEA430C7FEA6C5CD6D152EAF5
:108AD000033CD3D05DF8040B704700BF84461046BA
:108AE00062468C461946634600E000BF01B5FFF7B9
:108AF000B7FF002848BF10F1000F01BD4DF808ED89
:108B0000FFF7F4FF0CBF012000205DF808FB00BF59
:108B10004DF808EDFFF7EAFF34BF012000205DF8B3
:108B200008FB00BF4DF808EDFFF7E0FF94BF012000
:108B300000205DF808FB00BF4DF808EDFFF7CEFF01
:108B400094BF012000205DF808FB00BF4DF808ED40
:108B5000FFF7C4FF34BF012000205DF808FB00BF11
:108B60004FEA410C7FEA6C5C02D150EA013C0AD129
:108B70004FEA430C7FEA6C5C02D152EA033C02D11B
:108B80004FF0000070474FF0010070474FEA41027C
:108B900012F5001215D211D56FF47873B3EB62524F
:108BA00012D94FEAC12343F0004343EA505311F076
:108BB000004F23FA02F018BF404270474FF0000008
:108BC000704750EA013005D111F0004008BF6FF046
:108BD000004070474FF00000704700BF4A0011D2BC
:108BE00012F5001211D20DD56FF47873B3EB625207
:108BF0000ED44FEAC12343F0004343EA505323FA13
:108C000002F070474FF00000704750EA013002D187
:108C10004FF0FF3070474FF0000070474FEA4102BD
:108C2000B2F1E04324BFB3F5001CDCF1FE5C0DD9CA
:108C300001F0004C4FEAC0024CEA5070B2F1004F14
:108C400040EB830008BF20F00100704711F0804F17
:108C500021D113F13872BCBF01F00040704741F4DC
:108C600080114FEA5252C2F11802C2F1200C10FAE0
:108C70000CF320FA02F018BF40F001004FEAC123C4
:108C80004FEAD32303FA0CFC40EA0C0023FA02F368
:108C90004FEA4303CCE77FEA625307D150EA01333E
:108CA0001EBF4FF0FE4040F44000704701F000400E
:108CB00040F0FE4040F40000704700BFD0B50C4BC0
:108CC000002206460F46FFF7B1FCFFF787FF044678
:108CD000FFF732FC074B0022FFF7A8FC02460B46C9
:108CE00030463946FFF7EAFAFFF778FF2146D0BD54
:108CF0000000F03D0000F041002301461A461846EE
:108D000000F044BF002100F0A9BE0A22002100F0BB
:108D100033BF0A22002100F02FBF0A44914200F124
:108D2000FF3300D1704710B511F8014B03F8014F24
:108D30009142F9D110BD02440346934200D17047DD
:108D400003F8011BF9E7000038B5104B1D68AB6B49
:108D50000446B3B91820FDF7E5FE0246A86320B922
:108D60000B4B0C484221FDF70DFF0B490B4BC0E9A3
:108D700000130B4B83600B23838100210120C2E988
:108D80000401AB6B00221C615A6138BDECE3032087
:108D9000C5C00B00DCC00B000E33CDAB34126DE64A
:108DA000ECDE050010F8012B11F8013B012A28BF69
:108DB0009A42F7D0D01A7047034613F8012B002AC5
:108DC000FBD1181A0138704710B57AB10346013942
:108DD000841813F8010B11F8012F904201D1A3421E
:108DE00001D1801A10BD0028F3D1FAE71046F9E747
:108DF00010B50139034632B111F8014F03F8014BA8
:108E0000013A002CF7D11A440021934200D110BD41
:108E100003F8011BF9E770B504460D4645EC104B0D
:108E2000164601F00DFE51EC100B7EB1C5F30A534E
:108E3000C3F16B03002B09DD1B0503F17F550024F3
:108E400005F5401522462B46FFF7F0FB70BD0000EC
:108E50002DE9F04F2DED028B9DB01F460023189396
:108E6000A24B13921B680593044618468846FFF7E9
:108E7000A3FF4FF0000A05464FF0000BCDF85C80D1
:108E8000179B1A782B2A4ED03BD80D2A34D8082AA3
:108E900034D8002A3ED000230A93179E3378302B13
:108EA00040F0B080737803F0DF03582B68D10A9B41
:108EB000019318AB029700938D4A19AB17A920466E
:108EC00000F02EFF10F00707054605D0062F2CD125
:108ED0000136002317960A93139B002B40F09085D0
:108EE0000A9BEBB152460BF1004343EC102B1DB033
:108EF000BDEC028BBDE8F08F202ACCD10133179353
:108F0000BEE72D2AC7D101220A925A1C17925B781C
:108F1000002BC2D1139BCDF85C80002B40F06E85F6
:108F200052465B46E1E70022EEE7189A3AB1352156
:108F30001AA801F090FE1899204601F04FFA013F5F
:108F4000042F06D8DFE807F00A0314170A00DDE94A
:108F50001AAB2807C0D54BF0004BBDE7DDE91AA3DB
:108F6000199A23F4801302F2334243EA025BF0E7DA
:108F7000DFF880B1EDE76FF0004B4FF0FF3AE8E724
:108F8000179B5A1C17925B78302BF9D0002BA3D07B
:108F900001234FF000090493179B0893CDF81C9010
:108FA0004F460A2217980678A6F13003D9B209294C
:108FB0002AD905992A46FFF707FF98B300203246C1
:108FC0003D4605900346652A01D0452A18D11DB9B2
:108FD000049A02439ED00025DDF85C8008F101026E
:108FE000179298F801202B2A75D02D2A7BD04FF0AC
:108FF000000CA2F13001092940F28280CDF85C809A
:1090000000269DE00023C4E7082FD8BF079900F190
:109010000100DABF02FB0133079302FB0939013774
:109020001790BFE7179B5A1917925A5D002F37D038
:1090300005903D46A2F13003092B12D90123C2E766
:10904000179B5A1C17925A780130302AF8D0A2F197
:109050003103082B00F2D984179B05900020089358
:109060000546303A00F1010314D0059919440591E1
:109070002B4600EB050E0A21734513D12B18082B44
:1090800005F1010505441CDC07990A2303FB0123B4
:1090900007930023179A511C179152781846C9E775
:1090A0003846D2E7082B04DC079E4E43079601336F
:1090B000E2E703F1010CBCF1100FD8BF01FB09F985
:1090C000F5E7102DDCBF0A2303FB0929E1E70023A4
:1090D000059301237CE74FF0000C08F10202179280
:1090E00098F8022085E74FF0010CF6E704C30B0067
:1090F0003CC10B000000F07F179A511C1791527869
:10910000302AF9D0A2F1310108293FF679AFA2F156
:10911000300E179A0692179A511C17915278A2F1A5
:109120003006092E37D9069E891B082944F61F668A
:1091300002DC7645A8BF7646BCF1000F00D076422F
:10914000002D4DD1049901437FF4C6AE002B7FF46E
:10915000E1AE692A27D024DC492A24D04E2A7FF4A4
:10916000D9AE9F4917A801F033F800283FF4D2AEDA
:10917000179B1B78282B2DD19A491AAA17A801F002
:109180003BF8052826D11B9BDDF868A043F0FF4B78
:109190004BF4E00BA0E60A2101FB0E2EAEF1300EDF
:1091A000B9E76E2ADBE7904917A801F011F800280B
:1091B0003FF4B0AE179B8D49013B17A8179301F000
:1091C00007F810B9179B01331793DFF830B24FF04F
:1091D000000A81E6864801F093FD5BEC10AB7BE66C
:1091E000059B0798F31A002F08BF2F46102D0693F2
:1091F000A846A8BF4FF01008FFF79EF9092D824638
:109200008B4613DD7B4B03EBC80353E91223FFF7B7
:109210000DFA824648468B46FFF78EF902460B460A
:1092200050465946FFF74CF882468B460F2D38DCE6
:10923000069B002B3FF450AE24DD162B0BDC6D4952
:1092400001EBC301D1E9000152465B46FFF7EEF99D
:1092500082468B4640E6069AC5F12503934220DB01
:10926000644CC5F10F0504EBC50152465B46D1E9DC
:109270000001FFF7DBF9069B5D1B04EBC504D4E995
:109280000023E3E7069B16330BDB059B9E1B594B24
:1092900003EBC606D6E9002350465946FFF7F0FA1D
:1092A000D6E7069BA5EB08089844B8F1000F74DDDB
:1092B00018F00F030AD04F4901EBC30152465B4639
:1092C000D1E90001FFF7B2F982468B4638F00F086A
:1092D0004FD0B8F59A7F22DD00252E4607950595DB
:1092E0002223DFF818B123604FF0000A079B002B00
:1092F0003FF4F2AD1899204601F070F80599204628
:1093000001F06CF83146204601F068F807992046D4
:1093100001F064F82946204601F060F8DCE5364BA0
:10932000049300234FEA2818504659469946B8F14D
:10933000010F21DC0BB182468B462F4BABF1547BE6
:1093400003EBC90952465B46D9E90001FFF76EF904
:109350002A4B0A460B402A498B428246BCD8A1F5CB
:1093600080118B4286BFDFF89CB04FF0FF3A02F1CC
:10937000547B0023049384E018F0010F05D0049B74
:10938000D3E90023FFF752F90123049A083209F1C7
:1093900001094FEA68080492C9E7EAD0C8F1000859
:1093A00018F00F020AD0134B03EBC2035046594684
:1093B000D3E90023FFF764FA82468B465FEA281858
:1093C000D7D0B8F11F0F1FDD00252E460795059554
:1093D00022234FF0000A4FF0000B236086E700BF06
:1093E00081BE0B0050C10B0085BE0B0035C10B00C8
:1093F00032AE0B0098C30B0070C30B000000F07F6F
:109400000000A07CFFFFEF7F18F0100318BF6A2355
:10941000DFF8AC93049350465946002318F0010F2F
:1094200004D0D9E90023FFF701F901235FEA6808B6
:1094300009F10809F2D10BB182468B46049BC3B1F6
:10944000CBF30A52C2F16B03002B594611DD1F2BDF
:1094500040F32481342BDEBFC2F14B024FF0FF33C7
:1094600003FA02F24FF0000ACCBF4FF05C7B02EA35
:10947000010B0022002350465946FFF73FFB00280E
:10948000A2D1079B009308992B463A46204601F04B
:109490000DF8079000283FF41FAF059B9E1B069B0D
:1094A000002BB4BF334600230C93069B002523EA10
:1094B000E37312932E46079B2046596800F04EFF37
:1094C000059000283FF40CAF079B1A69023203F1A4
:1094D0000C0192000C30FFF720FC4BEC10AB1AAAE9
:1094E00019A9204601F028FB4BEC18AB1890002876
:1094F0003FF4F6AE0121204601F072F8064600283E
:109500003FF4EEAE199B0499002BABBF0C9A129A54
:10951000129FDDF83090ACBF03EB0209D71A1A9AFC
:10952000A3EB01089044A14B08F1FF389845C2F124
:10953000360280F2C780A3EB08031F2BA2EB0302C5
:109540004FF0010100F3B18001FA03F30D93002302
:10955000089309EB0208049BC14517441F444B467E
:10956000A8BF4346BB42A8BF3B46002BC2BFA8EBE7
:109570000308FF1AA9EB03090C9B002B17DD3146EA
:109580001A46204601F0ECF8064600283FF4A8AE43
:109590000146189A204601F039F80B9000283FF454
:1095A0009FAE1899204600F019FF0B9B1893B8F155
:1095B000000F00F38C80069B002B08DD129A0599A2
:1095C000204601F0CDF8059000283FF489AE002F29
:1095D00008DD05993A46204601F01CF9059000285F
:1095E0003FF47EAEB9F1000F08DD31464A46204611
:1095F00001F010F9064600283FF472AE059A18995A
:10960000204601F093F9054600283FF469AEC3688F
:109610000B930023C360314601F06CF9002860DA37
:109620000B9B53EA0A0340F08280CBF31303002B19
:109630007DD12BF000431B0D1B05B3F1D66F76D9FE
:109640006B6913B92B69012B71DD29460122204674
:1096500001F0E0F83146054601F04CF9002866DDDE
:109660000499534A5B46002900F0818002EA0B010D
:10967000B1F1D66F7BDCB1F15C7F7FF7A9AE4D4BCA
:10968000504659460022FEF7D1FF0B46034308BF60
:10969000222382468B4608BF23602BE64FF0FF3221
:1096A00002FA03F303EA0A0AE3E6C8F17F4808F581
:1096B0007F0808F57B4808F1E20801FA08F30893EF
:1096C0000D9146E70023089301230D9341E7189974
:1096D0004246204601F09EF8189000287FF46BAFB8
:1096E000FEE55F466ED10B9ACBF3130342B3324AC9
:1096F000934228D1049B5146EBB12D4B3B40B3F133
:10970000D46F4FF0FF3219D81B0DC3F16B0302FA6F
:1097100003F3994217D1294B9F4202D101313FF403
:10972000DFAD234B3B4003F5801B4FF0000A049B49
:10973000002BA4D1DEE54FF0FF33EAE71346E8E75C
:1097400053EA0A038CD0089BDBB13B42EFD00B9B62
:10975000049A50465946C3B1FFF75DFB02460B46DB
:1097600051EC180BFEF7ACFD82468B46DFE7134049
:10977000A3F580136FEA135B6FEA0B5B4FF0FF3AC0
:10978000D5E70D9B13EA0A0FE0E7FFF744FB02461B
:109790000B4651EC180BFEF791FD00220023824688
:1097A0008B46FFF7ABF90028C1D011E602FCFFFFA2
:1097B0000000F07F00005039FFFF0F00FFFFEF7F38
:1097C00068C10B003146284601F012FA59EC108BA3
:1097D00010EE100A00224FF080434946FFF7A2F92D
:1097E00000287AD00B9B002B4AD0954B0022CDE964
:1097F0000823DFF84C924FF00008924B3B400D934A
:109800000D9A914B9A4240F0B080DDE90801A7F132
:10981000547B4BEC10ABCDE9080101F011F9DDE907
:10982000080153EC102BFEF701FF52465B46FEF792
:1098300047FD0B468349854A19409142824660D9CB
:1098400018EE903A02F15472934204D118EE103A95
:1098500001333FF445ADDFF800B24FF0FF3A1899FD
:10986000204600F0BBFD0599204600F0B7FD3146CB
:10987000204600F0B3FD2946204600F0AFFD1AE671
:10988000BAF1000F1BD1CBF31303F3B96C4B0022D9
:1098900040464946FFF73CF9D0B9404649466C4B33
:1098A0000022FEF7C3FE8046894609F10043CDF849
:1098B00050801593DDE91423CDE908239DE7BAF123
:1098C000010F02D1002F3FF483AD624B00228EE7DF
:1098D000DFF87C914FF00008E7E75D4B40464946D2
:1098E0000022FEF7A3FE0B9B8046894633B901F1A7
:1098F00000430E900F93DDE90E23DDE7CDE90E89DD
:10990000F9E703F1547B049B002BA8D12BF0004313
:109910000D9A1B0D1B059A42A1D14046494601F004
:1099200005FAFEF755FE02460B4640464946FEF74D
:10993000C5FC0B9ACBF3130343EA0A031343804697
:10994000894655D036A3D3E90023FFF7E1F8002874
:109950007FF4D0AC34A3D3E9002340464946FFF757
:10996000F5F800283FF47BAFC4E4049B33B30D9BB0
:10997000B3F1D46F22D82EA3D3E900234046494641
:10998000FFF7D0F8A0B149464046FFF727F9012874
:1099900038BF0120FEF7D0FD0B9B8046894623BBD4
:1099A00001F1004310901193DDE91023CDE9082364
:1099B000099B0D9A03F1D6639B1A0993DDE908010F
:1099C000B0EE480AF0EE680ACDE9080101F038F877
:1099D000DDE9080153EC102BFEF728FE53EC182BA1
:1099E000FEF76EFC82468B468DE7CDE91089DBE7FA
:1099F00011A3D3E90023FFF78BF8B2E700230A9302
:109A0000139A179B1360FFF76BBA652A3FF45FAB9D
:109A1000452A3FF45CAB0123FFF794BBAFF3008012
:109A20009535A094FFFFDF3F35E5AF350000E03FFF
:109A30000000C0FFFFFFDF419535A094FFFFCF3F3F
:109A40000000F03F0000F07F0000E07FFFFF9F7C00
:109A50000000E03F0000F0BFFFFFEF7F0A46014635
:109A60000248034B0068FFF7F3B900BFECE30320A3
:109A700058E40320012B2DE9F04701D0242B06D90F
:109A8000FDF778F8162303600020BDE8F087DFF8C3
:109A9000E4C00D462E4615F8014B14F80C7017F073
:109AA0000807F7D12D2C32D12C780127B51C002BBB
:109AB0005BD0102B09D1302C07D12C7804F0DF04B7
:109AC000582C4DD16C781023023507F1004808F16D
:109AD000FF384FF0000CB8FBF3F9664603FB198A18
